:020000040800F2
:1000000000300020E13F0008314000083140000886
:100010003140000831400008314000080000000075
:100020000000000000000000000000003140000857
:10003000314000080000000031400008013F000886
:1000400031400008314000083140000831400008CC
:1000500031400008314000083140000831400008BC
:1000600031400008314000083140000831400008AC
:10007000314000083140000831400008314000089C
:10008000113F00081D3F00083140000831400008C2
:10009000314000083140000831400008314000087C
:1000A000314000083140000831400008314000086C
:1000B00031400008314000080000000031400008D5
:1000C000314000080000000000000000314000083E
:1000D0000000000031400008293F000831400008BE
:1000E000314000083140000800000000000000001E
:1000F0000000000000000000000000000000000000
:1001000000000000000000000000000000000000EF
:1001100000000000000000003140000831400008ED
:1001200000000000000000000000000000000000CF
:1001300000000000000000000000000000000000BF
:1001400031400008314000080000000000000000BD
:10015000000000000000000000000000000000009F
:10016000000000000000000000000000000000008F
:10017000000000000000000000000000000000007F
:080180000000000031400008FE
:1001880010B5054C237833B9044B13B10448AFF3C9
:1001980000800123237010BD7800002000000000BB
:1001A8008042000808B5034B1BB103490348AFF36D
:1001B800008008BD000000007C000020804200088C
:1001C800034613F8012B002AFBD1181A013870478F
:1001D800084B094A1B6810B5A2FB0323044698097B
:1001E80000F092F8214600224FF0FF3000F04AF864
:1001F800002010BD10000020D34D6210074A08B53A
:10020800136843F010031360032000F029F800205E
:10021800FFF7DEFF03F0A8FD002008BD0020024024
:10022800024A136801331360704700BF380B00207F
:10023800014B1868704700BF380B002030B583B0F9
:100248000190FFF7F5FF019C631C054618BF0134B8
:10025800FFF7EEFF401BA042FAD303B030BD00BF4A
:10026800074AD3684FF6FF010B40000243F0BF6313
:1002780000F4E06043F400330343D360704700BFE9
:1002880000ED00E0184BDB68C3F3022330B4C3F180
:100298000705042D03F1040428BF0425062C19D9E9
:1002A800033B4FF0FF349C4022EA04044FF0FF3236
:1002B800AA4021EA020101FA03F2224312010028AE
:1002C800D2B20ADB00F1604000F5614080F80023FB
:1002D80030BC704700242346E8E7044B00F00F00C9
:1002E80003441A7630BC704700ED00E0FCEC00E0F7
:1002F80000F01F0101234009024A8B4042F82030D8
:10030800704700BF00E100E00138B0F1807F0ED2F5
:10031800084B10B4084C5860F02084F823000022E1
:10032800072110469A6019605DF8044B7047012058
:10033800704700BF10E000E000ED00E0044A1368D9
:1003480004280CBF43F0040323F004031360704730
:1003580010E000E0704700BF08B5FFF7FBFF08BDDD
:1003680068B370B4D0E90125D0E9031403462A43E1
:1003780000685E699D690A43224332430468114953
:10038800114E2A43DD69014424F47F54A6FB016120
:100398002A4324F03004224309090C4C02608900E6
:1003A80000200122C3E90F41C3E90A00C3E90C0098
:1003B800986383F8200083F8212070BC70470120DF
:1003C800704700BFF8FFFDBFCDCCCCCC0000024089
:1003D800F0B590F82040012C2FD090F8215001243E
:1003E800A54280F8204023D104680026D0E90FC731
:1003F80086632668BD4026F0010647684FF0020E66
:1004080080F821E02660CCF804506360C36A102F9E
:100418000BBFA260A160E160E26083B1236843F092
:100428000E032360236843F0010323600020F0BD1E
:10043800002380F820300220F0BD0220F0BD2368A0
:1004480043F00A032360236823F004032360E9E7E9
:1004580090F82120022AF8B503D0042282630120F3
:10046800F8BD0268016C1468C76B456B24F00E0474
:1004780014601468012624F00104146006FA01F1DE
:100488000024796080F8216080F8204015B1A847E1
:100498002046F8BD2846F8BD70B4D0E90F520423B1
:1004A8002968046893400B4226680AD016F0040FA6
:1004B80007D02268920637D5C26A6B60CAB170BC91
:1004C8001047022393400B4215D016F0020F12D0AA
:1004D8002268920606D42268012122F00A022260CC
:1004E80080F82110826A6B60002380F82030002A8F
:1004F800E5D170BC7047082393400B42F9D033070D
:10050800F7D52368016B23F00E032360012303FA58
:1005180002F200246A60836380F8213080F820406A
:100528000029E6D070BC0847226822F00402226045
:10053800C2E700BFD1F800C0BCF1000F00F0C080D6
:100548002DE9F04FDFF88CE183B0884600254FF0A5
:10055800010909FA05F313EA0C046DD0D8F8042050
:1005680022F0100ABAF1020F6DD06F00032101FAD0
:1005780007F6D0F800B0F643114006EA0B0BB94075
:100588000AF1FF3A41EA0B01BAF1010F01607BD988
:10059800C168D8F808300E40BB403343D700C36069
:1005A8004AD548498B6943F001038B618B6925F073
:1005B800030101F1804103F0010301F5803101934A
:1005C80005F00303019E8E689B000F279F40B0F142
:1005D800904F26EA07060DD03B4FB8426CD03B4FF0
:1005E800B84264D03A4FB8420CBF0327052707FA30
:1005F80003F31E438E60DEF80030E143D60354BF98
:100608000B402343CEF80030DEF80430970354BF84
:100618000B402343CEF80430DEF80830D60254BF2E
:100628000B402343CEF80830DEF80C30920254BF5A
:100638000B402343CEF80C3001353CFA05F388D142
:1006480003B0BDE8F08FEF0800EB870705F0070659
:10065800396AB6004FF00F0A0AFA06FB21EA0B0ABC
:10066800D8F81010B14041EA0A0139626F0003213D
:10067800D0F800A001FA07F6F64311400AEA060A84
:10068800B94041EA0A010160816801EA060AD8F81E
:100698000C10B94041EA0A018160D0F804A0C2F305
:1006A80000112AEA0303A9401943416070E70227B1
:1006B80007FA03F31E439DE709FA03F31E4399E77C
:1006C800704700BF001002400004004800080048BE
:1006D800000C0048000401400AB98162704781613A
:1006E800704700BF4369594041617047084B094949
:1006F8009A6942F001029A619B6982B003F0010392
:100708000193019B0B681843086002B0704700BF53
:1007180000100240000001402DE9F0430368D907AA
:1007280083B0044643D5C1494A6802F00C02042A42
:1007380000F016814A6802F00C02082A00F00C81C9
:100748006368B3F5803F00F08881002B00F09F813B
:10075800B3F5A02F00F09F82B44B1A6822F48032C0
:100768001A601A6822F480221A60B04DA268EB6AF7
:1007780023F00F031343EB62FFF75AFD4FF40038E1
:100788000746012605E0FFF753FDC01B642800F269
:100798007A8198FAA8F32A6898FAA8F3B3FA83F347
:1007A80003F01F0306FA03F31342ECD023689F07F4
:1007B80042D59E4A516811F00C0F00F0EC80516848
:1007C80001F00C01082900F0E2802269002A00F0FB
:1007D800B481012292FAA2F3B3FA83F303F18453AA
:1007E80003F584139B0016461A60FFF721FD4FF0AE
:1007F800020807468D4D05E0FFF71AFDC01B0228C9
:1008080000F2418198FAA8F32A6898FAA8F3B3FA93
:1008180083F303F01F0306FA03F31342ECD02968AD
:10082800F82292FAA2F26369B2FA82F221F0F80190
:1008380093400B432B6023681D072CD5A269002A1F
:1008480000F0C080012292FAA2F1794B774EB1FAFA
:1008580081F10B449B0015461A60FFF7E9FC4FF045
:100868000208074605E0FFF7E3FCC01B022800F278
:100878000A8198FAA8F398FAA8F398FAA8F3726A82
:1008880098FAA8F3B3FA83F303F01F0305FA03F306
:100898001342E8D02368580727D5644BDA69D1009A
:1008A80040F1B7804FF00008624D2A68D20540F148
:1008B800DA80E368012B00F06681002B00F01081DC
:1008C800052B5A4B1A6A00F0898122F001021A623C
:1008D8001A6A22F004021A625AE1B8F1000F04D031
:1008E800524AD36923F08053D361E36983B34F4DF0
:1008F8006A6802F00C02082A60D0022B4FF080735D
:1009080000F0748193FAA3F3B3FA83F303F18453E9
:1009180003F584139B0000221A60FFF789FC2C461C
:1009280007464FF00075012605E0FFF781FCC01B64
:10093800022800F2A88095FAA5F3226895FAA5F393
:10094800B3FA83F303F01F0306FA03F31342ECD15F
:10095800002003B0BDE8F0834A68D2037FF5F0AE0B
:100968004FF4003292FAA2F13049086892FAA2F2E2
:10097800B2FA82F202F01F02012101FA02F20242E7
:100988003FF415AF6268002A7FF411AF16E0526891
:10099800D6033FF51AAF022292FAA2F1234908685A
:1009A80092FAA2F2B2FA82F202F01F02012101FACF
:1009B80002F2024240D022698A423DD0012003B0AF
:1009C800BDE8F083012595FAA5F1194B174EB1FA48
:1009D80081F10B449B004FF002081A60FFF728FCD6
:1009E800074604E0FFF724FCC01B02284BD898FAFE
:1009F800A8F398FAA8F398FAA8F3726A98FAA8F3F1
:100A0800B3FA83F303F01F0305FA03F31342E9D1A2
:100A180040E7DA6942F08052DA61DB6903F080531B
:100A28000193019B4FF001083EE700BF0010024010
:100A380020819010007000409D4DF821286891FA9F
:100A4800A1F16269B1FA81F120F0F8008A4002430D
:100A58002A601D077FF51FAFF0E6954A136843F437
:100A68008033136081E62A6842F480722A60FFF7B7
:100A7800DFFB06462B68DB053FF51BAFFFF7D8FB0E
:100A8800801B6428F6D9032003B0BDE8F083884DA5
:100A98002B6823F480332B602B6823F480232B608E
:100AA800EB6AA26823F00F031343EB62FFF7C0FB66
:100AB8004FF400380746012604E0FFF7B9FBC01BD6
:100AC8006428E0D898FAA8F32A6898FAA8F3B3FA41
:100AD80083F303F01F0306FA03F31342EDD165E62F
:100AE800734D2B6A23F001032B622B6A23F0040356
:100AF8002B62FFF79DFB4FF002090746012614E021
:100B080099FAA9F36A6A99FAA9F3B3FA83F303F095
:100B18001F0306FA03F313423FF4DFAEFFF788FB27
:100B280041F28833C01B9842ADD899FAA9F399FAD3
:100B3800A9F3002BE4D02A6AE5E7012595FAA5F385
:100B4800B3FA83F303F1845303F584139B004FF046
:100B580002081A60FFF76CFB554E074604E0FFF7E2
:100B680067FBC01B02288ED898FAA8F3326898FA57
:100B7800A8F3B3FA83F303F01F0305FA03F3134250
:100B8800EDD1236858E64A4A136A43F00103136219
:100B9800FFF74EFB4FF002090746454E012515E0C9
:100BA80099FAA9F3726A99FAA9F3B3FA83F303F0ED
:100BB8001F0305FA03F313427FF48FAEFFF738FBE8
:100BC80041F28833C01B98423FF65DAF99FAA9F30A
:100BD80099FAA9F3002BE3D0326AE4E742F0040261
:100BE8001A621A6A42F001021A62D1E793FAA3F371
:100BF800B3FA83F303F1845303F584139B000022B3
:100C08001A60FFF715FB4FF000780746012605E04C
:100C1800FFF70EFBC01B02283FF635AF98FAA8F382
:100C28002A6898FAA8F3B3FA83F303F01F0306FAC5
:100C380003F31342ECD1D4E908136A680B4322F496
:100C4800741213436B604FF0807393FAA3F3B3FAF3
:100C580083F303F1845303F584139B004FF000746E
:100C68001E60FFF7E5FA124E0746012505E0FFF77B
:100C7800DFFAC01B02283FF606AF94FAA4F33268E5
:100C880094FAA4F3B3FA83F303F01F0305FA03F30A
:100C98001342ECD05CE603F18043A3F53C331A68B9
:100CA80042F480221A601A6842F480321A605CE5C5
:100CB80000100240154810B4446804F00C03082BD7
:100CC80003D013485DF8044B70474FF4701393FA40
:100CD800A3F3B3FA83F304F47012DA400D49C36A3C
:100CE800885C0F2292FAA2F2B2FA82F203F00F03A2
:100CF800D3400B441A7CE3034ABF054B064BB3FBB6
:100D0800F2F35DF8044B03FB00F07047001002405B
:100D180000127A009842000800093D005E4A1368F4
:100D280003F007038B420BD2136823F007030B432E
:100D38001360136803F007038B4201D0012070474A
:100D480003682DE9F0419C0706D5544C8568626814
:100D580022F0F0022A4362600E46D907044631D5D4
:100D68004268012A00F08480022A0CBF4FF0007309
:100D7800022393FAA3F14949086893FAA3F3B3FA53
:100D880083F303F01F03012101FA03F3034229D07F
:100D9800424D6B6823F003031A436A60FFF748FA71
:100DA8006368012B074641F2883850D0022B05D1E1
:100DB80058E0FFF73DFAC01B40456BD86B6813F04D
:100DC8000C0FF6D1344A136803F00703B3420CD969
:100DD800136823F0070333431360136803F0070312
:100DE800B34202D00120BDE8F08123685A0706D536
:100DF8002A49E0684A6822F4E06202434A601B0715
:100E080007D5264A2169536823F4605343EAC1038E
:100E18005360FFF74FFF214B0146F0225B6892FABF
:100E2800A2F2B2FA82F203F0F003D3401C481D4A42
:100E3800C35C002021FA03F31360FFF7C9F900200F
:100E4800BDE8F081FFF7F4F9C01B404522D86B6874
:100E580003F00C03042BF5D1B4E7FFF7E9F9C01B45
:100E6800404517D86B6803F00C03082BF5D1A9E7A8
:100E78004FF4003393FAA3F10849096893FAA3F3EE
:100E8800B3FA83F303F01F0302FA03F30B427FF470
:100E98007FAFA7E70320A6E700200240001002402A
:100EA800D842000810000020014B1868704700BFA6
:100EB80010000020084B4FF4E0625B6892FAA2F23F
:100EC800B2FA82F203F4E063D3400449044ACB5CEB
:100ED8001068D840704700BF00100240E842000880
:100EE80010000020084B4FF460525B6892FAA2F29F
:100EF800B2FA82F203F46053D3400449044ACB5C4B
:100F08001068D840704700BF00100240E84200084F
:100F18001000002090F83C30012B68D002220368B2
:100F2800F0B480F83D209D680C685E4A402C02EAC7
:100F380005024FF0010580F83C509A6000F09A8055
:100F480019D9702C00F082802BD9B4F5805F76D047
:100F5800B4F5005F1CD1D1E90152CC6899682A43E5
:100F680042EA042221F47F410A439A609A6842F4D3
:100F780080429A600CE0102C42D02FD9202C38D017
:100F8800302C05D19A6822F0700242F037029A603C
:100F98000023012280F83D2080F83C30F0BC184640
:100FA8007047502C33D0602CF2D11C6A4D68CE6843
:100FB80024F010041C6299691A6A21F4704122F025
:100FC800A00242EA051241EA063199611A629A685A
:100FD80022F0700242F067029A60D9E7002CD7D15C
:100FE8009A6822F0700242F007029A60D0E7022065
:100FF80070479A6822F0700242F027029A60C7E7A9
:101008009A6822F0700242F017029A60C0E71D6ADF
:101018001E6A4C68CF6826F001061E629A6925F0A0
:101028000A0122F0F00242EA071221439A6119628A
:101038009A6822F0700242F057029A60A8E79A680C
:1010480022F4803222F007029A60A1E7D1E9015226
:10105800CC6899682A4342EA042221F47F410A4372
:101068009A609A6822F4803222F0770242F077027E
:101078009A608DE71D6A1E6A4C68CF6826F00106E3
:101088001E629A6925F00A0122F0F00242EA07126C
:1010980021439A6119629A6822F0700242F047026D
:1010A8009A6075E78800FEFF2F4A03689042F0B403
:1010B8004D698E680C6837D0B0F1804F19D0A2F511
:1010C8009432904215D002F59E3290423FD002F5FC
:1010D8008062904239D002F58062904235D023F088
:1010E80080032B430360C662846201234361F0BC22
:1010F80070474F68CA6823F070033B4323F440737A
:10110800134323F080032B430360184BC6629842B5
:10111800846203D003F580639842E6D10B690363C8
:1011280001234361F0BC70474F68CA6823F070031D
:101138003B4323F44073134323F080032B430360A2
:10114800C66284620B690363EAE7CA68F1E7CF689D
:1011580023F440723A4322F080022A430260C662B6
:1011680084620B690363DBE7002C01400044014003
:10117800B8B190F83D3010B503F0FF0204465BB1FA
:10118800022384F83D302068211DFFF78DFF0123DD
:1011980084F83D30002010BD80F83C2002F022FE8B
:1011A800EEE70120704700BF90F83C30012B1BD0C0
:1011B800026870B40E4D53689468AA420FD00E6846
:1011C8008D6823F0700324F0800133430024294301
:1011D8005360916080F83C40204670BC70474D6871
:1011E80023F470032B43EAE702231846704700BF35
:1011F800002C014090F86930202B2ED170B551B3E6
:101208004AB390F86830012B29D004460126006EB5
:1012180084F86860134600252126A4F85230E56654
:1012280084F869600F4E2268A4F85030E164866241
:101238000D4EC6620D4E456306632832FFF7C8F8A7
:10124800236840221A629A6884F8685042F0800243
:1012580028469A6070BD012070BD022070470220A8
:1012680070BD00BFFD1200082D130008851300088B
:1012780070B590F86A40202C32D1002932D0002A6B
:1012880030D090F86830012B2AD004460126406EF1
:1012980084F8686000252226E566134684F86A60AB
:1012A8000A46114E21686265A4F8583086620F4ECE
:1012B800C6620F4E456306632431FFF789F8236839
:1012C80084F868501A6842F480721A609A6842F08A
:1012D80001029A609A6842F0400228469A6070BDFE
:1012E800022070BD012070BD391300087513000875
:1012F8008513000808B50368406A1B6813F02003CB
:101308000BD10268A0F85230936823F080039360F1
:10131800136843F04003136008BD01F059F808BD95
:10132800704700BF08B5406AFFF7FAFF08BD00BF65
:1013380008B50368406A1B6813F0200311D10268DE
:10134800A0F85A30136823F480731360936823F06D
:10135800010393609368202123F04003936080F891
:101368006A1001F063F808BD704700BF08B5406A0D
:10137800FFF7FAFF08BD00BF704700BF406A08B515
:1013880090F86930212B1DD090F86A30222B06D0B6
:10139800C36E43F01003C366FFF7EEFF08BD036892
:1013A8009A685206F4D50022A0F85A201A6822F446
:1013B80090721A609A68202122F001029A6080F8DF
:1013C8006A10E5E703689A681106DDD50022A0F8DF
:1013D80052201A68202122F0C0021A6080F8691091
:1013E800D2E700BF08B5436A0022A3F85A2018467E
:1013F800A3F85220FFF7C0FF08BD00BF026883684A
:10140800594970B50569466904462B43C069156892
:101418003343294003430B4313605168E568A369CC
:10142800266A21F440512943516091684F4D21F4B7
:10143800306133430B43AA4293601BD04C4B9A4212
:1014480008D04C4B9A4205D0B0F5004F00F085808B
:10145800012070BDB0F5004F00F08280FFF72AFD33
:10146800D4E9002300EB5300B0FBF3F080B2D06066
:10147800002070BD404B41491B6B03F00303B0F5DE
:10148800004FCB5C16D0082BE2D801A252F823F00B
:10149800651400085D150008431500085914000874
:1014A8003D1500085914000859140008591400087B
:1014B80027150008082B50D8DFE803F0522E254FD7
:1014C800144F4F4F05006368590801F58031B1FB8F
:1014D800F3F1C1F3420321F00F010B439BB200204B
:1014E800D36070BDFFF7E6FBD4E900214B0803EB9E
:1014F8004000B0FBF1F0C0F3420320F00F000343BB
:101508009BB20020ECE761684B0803F5740303F510
:101518001053B3FBF1F1DCE7FFF7E4FCE4E76268A2
:101528001249530803F50043B3FBF2F39BB2CB60B7
:10153800002070BDFFF7BEFB92E762680B495308B5
:1015480003F5F40303F59053B3FBF2F39BB2CB60BE
:10155800002070BDFFF7C6FC82E700230120BFE72B
:10156800FFF7A8FCC0E700BFF369FFEF00380140B0
:10157800004400400048004000100240B842000803
:10158800436ADA0710B406D50168846A4A6822F407
:10159800003222434A609C0706D50168C46A4A683B
:1015A80022F4803222434A60590706D50168046B49
:1015B8004A6822F4802222434A601A0706D5016845
:1015C800446B4A6822F4004222434A60DC0606D58E
:1015D8000168846B8A6822F4805222438A609906E3
:1015E80006D50168C46B8A6822F4005222438A60D7
:1015F8005A0609D50168046C4A6822F4801222430D
:10160800B4F5801F4A600BD01B0606D50268816CB2
:10161800536823F400230B4353605DF8044B704771
:101628004A68446C22F4C00222434A60ECE700BFD7
:101638002DE9F843089D80460F4616469946D8F886
:10164800004001E06B1C0AD1E06937EA00030CBFD7
:1016580001200020B042F5D00020BDE8F8833DB15C
:10166800FEF7E6FDA0EB0900A842E8D9D8F800404B
:10167800236823F4D0732360A368202223F0010396
:101688000021A360032088F8692088F8681088F88A
:101698006A20E2E770B50446002582B0C566FEF709
:1016A800C7FD23681A68120706460CD41B685B0737
:1016B80018D42023002084F8693084F8680084F85E
:1016C8006A3002B070BD6FF07E4300932A4603462D
:1016D8004FF400112046FFF7ABFF78B923681B6869
:1016E8005B07E6D56FF07E420092334600224FF446
:1016F80080012046FFF79CFF0028DAD0032002B0C3
:1017080070BD00BF90B390F8693010B503F0FF02C8
:10171800044603B32268242384F86930136823F04D
:10172800010313602046FFF769FE012818D0636A99
:10173800C3B923685A6822F490425A609A6822F022
:101748002A029A601A6842F0010220461A60BDE82F
:101758001040FFF79FBF80F8682002F057FBD9E7D9
:10176800012010BD2046FFF70BFFE2E7012070477C
:1017780090F86930212B1FD1B0F8523002689BB223
:1017880083B18168C36CB1F5805F17D0591CC164FF
:101798001B781385B0F85230013B9BB2A0F8523049
:1017A80000207047116821F080011160116841F034
:1017B80040011846116070470220704701690029EE
:1017C800E4D133F8021BC1F308011185C364E1E7D2
:1017D80090F86A20222A38B5036816D19B8C846851
:1017E800B0F85C10426D9BB2B4F5805F03EA010368
:1017F80011D0511C41651370B0F85A40013CA4B295
:10180800A0F85A4074B1002038BD9A6942F0080225
:101818009A61022038BD0469002CEAD122F8023B03
:101828004265E9E70268116821F4907111609168D6
:10183800202521F00101916080F86A5000F0F6FD42
:10184800204638BD0368DA69196870B5150704467B
:1018580010D196065BD49868D50202D5400200F1F3
:101868008480160601D50D0673D4500601D54A06A4
:1018780064D470BD986810F001054ED0D60707D51E
:10188800C80505D501201862E06E40F00100E06649
:10189800960748D53DB102201862E06E40F004007A
:1018A800E066500743D4100703D58E0656D4002DA2
:1018B80054D1E06E0028DCD0900601D5890665D4A5
:1018C800E26E120703D49D6815F0400563D01A68CC
:1018D80022F490721A609A68202122F001029A601C
:1018E80084F86A109A6856064CD59A68606E22F099
:1018F80040029A60002845D0294B4363FEF7A8FDB3
:101908000028B6D0606EBDE87040436B18478D065E
:10191800A1D5BDE87040FFF75BBF11F4907F9BD065
:10192800D607B5D5ACE75607BDD5002DBBD00420EA
:101938001862E06E40F00200E066B4E71A68202101
:1019480022F040021A60204684F8691000F040FD39
:1019580070BD2046BDE87040FFF70ABF0820186236
:10196800E06E40F00800E066A3E720224FF4801103
:101978001962204684F8692084F86A20BDE870401E
:1019880000F010B82046FFF7F7FC70BD2046FFF7BF
:101998001FFF236894E72046FFF7EEFCE56670BD5D
:1019A800ED130008704700BF70B40D68064B04685B
:1019B800064E6A0AA3FB0232D3091C4406FB1353E2
:1019C80004600B6070BC7047834B040000CA9A3BEC
:1019D80030B591B002240125102100224FF4601384
:1019E80006A806940D94CDE90A51CDE90E23FEF719
:1019F80093FE00B1FEE7034621464FF480620F25AF
:101A080001A8CDE90243059301950492FFF786F9F1
:101A1800044600B1FEE7FFF747FA4FF47A73B0FBCC
:101A2800F3F0FEF771FC0420FEF788FC22462146FD
:101A38004FF0FF30FEF726FC11B030BD00B5454D24
:101A4800454C8DB0FEF7DAFBFFF7C2FF6B694348E0
:101A580043F480036B616B6903F480030193019B7A
:101A68006B6943F400336B616B6903F400330293D1
:101A7800029B6B6943F480236B616B6903F48023D9
:101A88000393002208210026039BFEF725FE082267
:101A9800012307A93148CDE90723CDE90966FEF7F7
:101AA80049FD6B6943F001036B616B6903F0010346
:101AB8003246314600931020009BFEF7E3FB1020CE
:101AC800FEF716FC324631461120FEF7DBFB1120EB
:101AD800FEF70EFC4FF080414FF6FF124FF0FF3338
:101AE8002046A6602661A661C4E90012E360FFF7FC
:101AF8003FFB00B1FEE74FF4805307A92046079348
:101B0800FFF708FA034600B1FEE704A9204604934C
:101B18000693FFF749FB00B1FEE7114EA0644FF4AE
:101B280061450C212022C4E91300C4E9160020668F
:101B38004FF4005304F140002664656461656266F1
:101B4800E367FFF7DFFD00B1FEE700F079FC01F085
:101B580019FCFCE700100240940000200004004833
:101B680000440040FEE700BF43680B7043681B0A4F
:101B78004B70C3888B70C379CB7083680B71836893
:101B88001B0A4B7143898B71C37ACB71082070474C
:101B98000B7843604A7843EA022343608A7843EA31
:101BA80002434360CA7843EA026343600B79836067
:101BB8004A7943EA022383608A7943EA02438360CD
:101BC800CA7943EA02638360082070470048704777
:101BD8003C4400080048704718440008F0B40B78EB
:101BE80083804A7843EA02238380CA780D798B7808
:101BF80004461202487942EA054242EA00621A4360
:101C0800971D062F01F1050C07D963460CEB020559
:101C1800587803F8010B9D42FAD1561D00238B55C5
:101C280018460E44C4F808C016F8015F854008300D
:101C3800202843EA0503F7D13D1D2B44AB4208D9C0
:101C480009320A4428460130567802F8016B83426B
:101C5800F9D8013DCE1800200D4406F8010C0246C3
:101C6800E56016F8015B95400832202A40EA050035
:101C7800F7D11E1D3044864208D203330B44324646
:101C880001325D7803F8015B8242F9D30A18013EFC
:101C98000E44002302F8013C266193785578095CCC
:101CA800D2781B0443EA05230B4343EA026304305A
:101CB8006361F0BC704700BF00487047FC430008F0
:101CC80000487047D8430008F0B40B78037100232C
:101CD80007461C46084610F8012F9A400833202B67
:101CE80044EA0204F7D1601D052801F1040606D96B
:101CF800334635195A7803F8012B9D42FAD121440D
:101D080000230B71BE60F0BC704700BF00487047ED
:101D1800C443000800487047A043000800487047C3
:101D2800BC420008004870477C4300080023F0B418
:101D380007461C46481E10F8012F9A400833202BEE
:101D480044EA0204F7D1201D042801F1030606D94C
:101D5800334635195A7803F8012B9D42FAD12144AC
:101D68000023CB707E60F0BC704700BF004870470E
:101D780070440008004870474C44000890F8000977
:101D8800704700BF70B5064640680D46FEF718FA62
:101D9800030E010A020C04462870AA706970EB70E1
:101DA8007168281D224602F06BF9201D70BD00BF26
:101DB80043682DE9F0470B7043681B0A4B70C388D2
:101DC8008B70C379CB704368002B00F081800A4682
:101DD80000250426C36853F8253013711F0A1C0C0C
:101DE8001B0E57719471D37143680135371DAB428F
:101DF800344602F104023E46ECD804F1080304F12B
:101E0800050A04F1060904F1070804F1090E04F1B2
:101E18000A0C04F10B051E460C340269CA55026906
:101E2800120A01F80A20428A01F80920C27C01F846
:101E380008200269D2B18A190025836953F8253030
:101E480013701F0A1C0C1B0E9470D370577007690F
:101E58000135331DAF42344602F104021E46ECD868
:101E680004F1050E04F1060CE51D0834C269CA54D4
:101E7800C3691B0A01F80E30C38B01F80C30C37F0D
:101E88004B55C3690BB30F4680460026D8F824305B
:101E980053F82600FEF794F9B10005463A190023D5
:101EA80025FA03F00833202B02F8010BF8D1D8F8F3
:101EB80024300434381959582A4602F0E1F8D8F881
:101EC8001C300136B3422C44E0D82046BDE8F087E8
:101ED80008231E460C240B254FF00A0C4FF0090E60
:101EE8004FF007084FF006094FF0050A042794E75A
:101EF80070B503790B70064680680D46FEF760F9E9
:101F0800030E010A020C04466870EA70A9702B716E
:101F1800B168681D224602F0B3F8601D70BD00BFAD
:101F2800F8B583880B7083881B0A4B700646806857
:101F38000D46FEF745F9030E010A020C6B71A870F5
:101F48002A71E97002460446B168A81D02F098F8A3
:101F5800F068FEF735F9611D02462944063400236E
:101F680022FA03F00833202B01F8010FF8D10434CA
:101F78002819F168144402F083F83069FEF720F953
:101F88002A190746002327FA03F10833202B02F801
:101F9800011BF8D1043428193A46316902F070F867
:101FA800E01973692B540544190A1A0C1B0E697041
:101FB800AA70EB700430F8BD2DE9F04F43680C6847
:101FC800A34283B005460E46C0F0A6806C60002C84
:101FD80000F0AB803146002004278B7991F805E0AA
:101FE80091F804C0CC79EA681B0443EA0E2343EA5B
:101FF8000C0343EA0463AB6042F820306B6801309D
:102008003A1D83423C4601F104011746E5D804F124
:102018000808601DA31DE11D04F1090A04F10A0B5B
:1020280004F10B0947460C34F35C16F800C0B05CA9
:10203800715C2A691B0443EA0C23034343EA0163E6
:102048009A42C0F087802B611BB3F11900208B786E
:1020580091F801E091F800C0CC78AA691B0443EA22
:102068000E2343EA0C0343EA04636B6142F8203011
:102078002A69013007F1040882423C4601F1040153
:102088004746E4D804F1050A04F1060B04F10709F0
:10209800083416F80B7016F80A0016F8081016F827
:1020A8000920EB693F0447EA00270F4347EA026724
:1020B800BB4249D3EF615FB30027BC4600231946F2
:1020C800301910F8012B9A400833202B41EA0201FD
:1020D800F7D104F1040E0EEB0100864508D2E31C8B
:1020E800334472460132597803F8011B8242F9D30E
:1020F80033180EF1FF3E03F801CC6A6A06EB0E03B3
:102108002B6242F82730EB690137BB420446D5D829
:10211800204603B0BDE8F08FA100C06801F0BCFF05
:102128006C60E860002C7FF455AF4FF00808474614
:102138000C244FF00B094FF00A0B4FF0090A072146
:102148000623052004226FE7B900686A01F0A4FF9E
:102158006862AFE79900A869019301F09DFF019BB0
:10216800A86170E72DE9F041632984B003DD90F898
:102178000059002D54D0136804460E4610461B68BB
:1021880004F22B619847C1B2C0F307228B18DB43D6
:1021980084F826164FF6FF6784F82836F5B246F31A
:1021A8000721431C84F82726A4F8247684F82956A6
:1021B80084F82A1667DB04F22A61014404F22962D2
:1021C800002301E012F8015F8A422B44FAD1DB4375
:1021D800DBB2221800F10805B5F5007F82F82B362E
:1021E80053DCD4F80C04C0F50076AE4228BF2E4666
:1021F80000F50270271D04F224683246384441462F
:1022080001F03EFFD4F80C342B44C3F30803B54265
:10221800C4F80C3408D1606890F86930202B0FD0CE
:10222800284604B0BDE8F08108EB0601AA1B04F5B6
:10223800037001F025FF606890F86930202BEFD11A
:102248005E4E3378002BEBD1D4F80C14D4F810245C
:1022580001239142337013D093B28CBFCB1AC3F5CC
:1022680000731FFA83F802F50272B9184246FEF7A6
:10227800C1FFD4F810344344C3F30803C4F810343E
:1022880000233370CCE7FF23A3E7032223688DF8EC
:1022980008201B684A494B484B4D01908B420395D7
:1022A80040F086800023382184F82B2605F1300C75
:1022B80084F82C1684F82D3684F82E3684F82F36B8
:1022C80004F5C6672E460FCE664538607960BA6059
:1022D800FB60354607F11007F4D103CD00233860C1
:1022E8003A4D796040F2C2701A46A4F8280684F87C
:1022F8002A36C4F8245604F2296304F267600721D9
:1023080001E013F8011F83420A44FAD1D4F80C34CF
:10231800C3F50075452D03F502736FEA02022E46D8
:1023280004F1040728BF452604F2246884F86826C7
:10233800F8183246414601F0A3FED4F80C34453370
:10234800C3F30803442DC4F80C3407D808EB06017E
:10235800C6F1450204F5037001F092FE606890F83A
:102368006930202B02D04FF0FF3559E7134E3378F0
:10237800002BF8D1D4F80C14D4F81024012391427E
:10238800337012D093B28CBFCB1AC3F500739DB2D1
:1023980002F50272B9182A46FEF72CFFD4F8103459
:1023A8002B44C3F30803C4F8103400233370DAE76E
:1023B800204601AA07219847D5E700BF2C0B00202B
:1023C8006D2100082843000880440008FFFE3D00F6
:1023D80070B5144C606890F86930202B00D070BD3F
:1023E800114D2B78002BFAD1D4F80C34D4F81014F2
:1023F80001228B422A7012D08EB28CBF9E1BC6F56A
:102408000076B6B201F5037132462144FEF7F2FEBA
:10241800D4F810341E44C6F30806C4F81064002328
:102428002B7070BDCC0100202C0B0020034B4FF407
:10243800007203F108015868FEF71ABFCC010020AA
:1024480038B5154D4FF4007205F108016868FEF7BC
:102458000FFF00244FF47A70C5F8EC48C5F8F0482F
:10246800C5F8F848C5F8F448FDF7E8FE234605F531
:10247800026202E00133192B0DD052F8041F002923
:10248800F8D105EB83020549C5F848597D33C5F8ED
:102498004439C2F8241838BDCC010020080B0020AC
:1024A8002DE9F0410168474A0D68474B84B09542D1
:1024B80001934FF000030446CDE9023377D1434935
:1024C800C0F8241640F6F722C0F82826C0F82C36A3
:1024D800A0F8303680F8323600F229620A2100F27C
:1024E800326001E012F8011F82420B44FAD1D4F89D
:1024F8000C04C0F50075102D6FEA03032E4600F595
:10250800027028BF1026271D04F2246884F8333689
:1025180032463844414601F0B3FDD4F80C34103348
:10252800C3F308030F2DC4F80C340BD9606890F876
:102538006930202B13D0FDF77BFEC4F8140404B0D7
:10254800BDE8F08108EB0601C6F1100204F503703E
:1025580001F096FD606890F86930202BEBD11C4D96
:102568002B78002BE7D1D4F80C14D4F810240123CD
:1025780091422B7012D093B28CBFCB1AC3F5007363
:102588009EB202F50272B9183246FEF733FED4F84D
:1025980010343344C3F30803C4F8103400232B70F9
:1025A800FDF746FEC4F8140404B0BDE8F08101AAA2
:1025B8000A21A847FDF73CFEC4F8140404B0BDE89E
:1025C800F08100BF6D210008F8420008FFFE0800F6
:1025D8002C0B00202DE9F04FCF4BD04A8DB0CDE920
:1025E800083306920022044600F5026500F68409C5
:1025F800ADF81C200B920A9355F8043F002B00F00D
:10260800D680D3E9010106681A68B368ADF81C10D2
:10261800089298472B68099058680368DB689847C0
:10262800236829681B680F690A904FF400720B929F
:10263800BB4A9342824640F0FE81632F04DD94F842
:102648000039002B00F0B380BDF81C30DDF8208085
:1026580084F82B361B0A84F82C364046FDF7B0FD6B
:102668000646330E320C000A414684F8303684F8A8
:102678002D6684F82E0684F82F2604F2316032463F
:1026880001F0FEFCDDF824B05846FDF799FD04F290
:102698002B68711D024606364144002322FA03F0D6
:1026A8000833202B01F8010FF8D10436594608EBFE
:1026B8000600164401F0E4FC5046FDF781FD08EBE6
:1026C8000602834600232BFA03F10833202B02F875
:1026D800011BF8D10436514608EB06005A4601F0B2
:1026E800CFFC0BEB060008EB0001061D00235FFA88
:1026F80086FEC6F3072C4FF0020A08F800300EEBEE
:102708000C028B70CB7081F801A0F9B247F3072750
:10271800D2434FF6FF6884F82A76771C84F8282677
:1027280084F826E684F827C6A4F8248684F82916AF
:10273800C0F28B8104F22E62104404F2296201E097
:1027480012F8011F82420B44FAD1DB43DBB2A21913
:102758000836B6F5007F82F82B3600F37A81D4F874
:102768000C04C0F50077B74228BF374600F5027061
:1027780004F1040804F2246A3A464044514601F040
:102788007FFCD4F80C343344C3F30803BE42C4F8C6
:102798000C3406D0F21B0AEB070104F5037001F0B4
:1027A8006FFC606890F86930202B00F0FB804D4585
:1027B8007FF422AFDFF8689104F6E80855F8040FB3
:1027C800002800F0E680D0E9003182689B68ADF807
:1027D8001C10089298472B6809901A681846D36805
:1027E80098472B6821681A680E6852680A904FF457
:1027F80000710B91184690474E45074640F02081DE
:10280800632804DD94F80039002B00F0C280BDF87D
:102818001C30DDF820A084F82B361B0A84F82C36EF
:102828005046FDF7CDFC0646330E320C000A5146E1
:1028380084F8303684F82D6684F82E0684F82F261E
:1028480004F23160324601F01BFC099901910846F7
:10285800FDF7B6FC04F22B6A721D01998346063611
:10286800524400232BFA03F00833202B02F8010FFF
:10287800F8D104365A460AEB060001F001FC0A9921
:1028880001910846FDF79CFC5E44019983460AEBDA
:10289800060200232BFA03F00833202B02F8010B61
:1028A800F8D104360AEB06005A4601F0E9FB0BEBB7
:1028B80006000B9A0AF80020031D82445FFA83FC85
:1028C800C3F307264FEA122B4FEA124E0CEB060110
:1028D800120E8AF801B08AF802E08AF803205FFA3B
:1028E80087FEC9434FF6FF6B47F307275A1C84F846
:1028F800281684F826C684F82766A4F824B684F82F
:1029080029E684F82A76C0F2A28004F22E621044E6
:1029180004F22961002207E0B844000810430008C7
:102928006D21000811F801EF81427244FAD1D243B7
:10293800D2B2E11803F10807B7F5007F81F82B261A
:1029480000F32081D4F80C04C0F50076BE4228BFFD
:102958003E4600F5027004F1040A04F2246B324684
:102968005044594601F08CFBD4F80C243A44C2F385
:102978000802B742C4F80C2406D0BA1B0BEB0601B8
:1029880004F5037001F07CFB606890F86930202B37
:102998002DD045457FF412AF012384F800390DB0DE
:1029A800BDE8F08FC84E3378002B7FF400AFD4F821
:1029B8000C24D4F8103401219A42317014D09FB2FB
:1029C80093BFC7F50077D21B97B2BFB203F5027366
:1029D80008EB03013A46FEF70DFCD4F810343B44EB
:1029E800C3F30803C4F8103400233370DFE6B64E8F
:1029F8003378002BCDD1D4F80C24D4F8103401212D
:102A08009A42317014D09FB293BFC7F50077D21B9A
:102A180097B2BFB203F502730AEB03013A46FEF719
:102A2800E9FBD4F810343B44C3F30803C4F810346A
:102A380000233370ADE7394606AA20469847B6E624
:102A4800014606AA2046B047A3E7FF237FE6FF22F8
:102A58006FE7032223689D498DF810201B680391B6
:102A68009B499C4E05968B4240F0298100233821D2
:102A780084F82B2606F1300E84F82C1684F82D36AF
:102A880084F82E3684F82F3604F5C66C37460FCFF7
:102A98007745CCF80000CCF80410CCF80820CCF826
:102AA8000C303E460CF1100CF0D103CE0023CCF8CC
:102AB800041040F2C2768849CCF800001A46C4F8DF
:102AC800241684F82A36A4F8286604F2296304F246
:102AD8006760072101E013F8011F83420A44FAD115
:102AE800D4F80C34C3F50076452E03F502736FEA6B
:102AF8000202B04604F1040728BF4FF0450804F26B
:102B0800246A84F86826F8184246514601F0B8FA53
:102B1800D4F80C344533C3F30803442EC4F80C34FA
:102B280007D80AEB0801C8F1450204F5037001F063
:102B3800A7FA606890F86930202B7FF438AE624EAF
:102B48003378002B7FF433AED4F80C14D4F8103457
:102B58000122994232703FF447AF9AB28CBF8A1A69
:102B6800C2F5007203F502731FFA82F8F91842469B
:102B7800FEF740FBD4F810344344C3F30803C4F809
:102B8800103431E7032223688DF810201B68514E5A
:102B98004E4903914B45059640F08C80002338211F
:102BA80084F82B2606F1300E84F82C1684F82D367E
:102BB80084F82E3684F82F3604F5C66C37460FCFC6
:102BC8007745CCF80000CCF80410CCF80820CCF8F5
:102BD8000C303E460CF1100CF0D103CE0023CCF89B
:102BE800041040F2C2763C49CCF800001A46C4F8FA
:102BF800241684F82A36A4F8286604F2296304F215
:102C08006760072101E013F8011F98420A44FAD1CE
:102C1800D4F80C34C3F50076452E03F502736FEA39
:102C28000202B24604F1040728BF4FF0450A04F235
:102C3800246B84F86826F8185246594601F020FAA1
:102C4800D4F80C344533C3F30803442EC4F80C34C9
:102C580007D80BEB0A01CAF1450204F5037001F02D
:102C68000FFA606890F86930202B7FF492AE164E08
:102C78003378002B7FF48DAED4F80C14D4F81034CC
:102C88000122994232703FF4D3AE9AB28CBF8A1AAD
:102C9800C2F5007203F502731FFA82FAF918524658
:102CA800FEF7A8FAD4F810345344C3F30803C4F861
:102CB8001034BDE603AA07212046984769E603AA0F
:102CC80007212046984772E52C0B0020284300086E
:102CD8006D21000880440008FFFE3D002DE9F04FFB
:102CE800044689B0FDF7A4FAD4F8083942F6F82268
:102CF800C31A934284BF002384F80039D4F8EC380F
:102D0800064633B1D4F80C3983423CBF0023C4F8DB
:102D1800EC38D4F82014DFF860A4DFF860B439BBCD
:102D28006268D4F80832526E126852685242C2F38E
:102D38000802934200F0F280E018D4F8FC28007AE8
:102D4800D4F8EC580133C3F308030244072DC4F840
:102D58000832C4F8FC2817D05DBBFF2863D10122D4
:102D680006F11403C4F8EC28C4F80C390029D7D0AC
:102D7800FDF75EFAD4F82014801B8842D0D96FF092
:102D8800010009B0BDE8F08FD4F8F838E218013333
:102D9800C4F8F83882F82404D4F8F038013BC4F8B1
:102DA800F038002B3CD1D4F820140823C4F8EC38B0
:102DB800B5E7012D45D0022D00F09B80032D00F0D2
:102DC800A380042D00F0BE80052D00F0D680062DCE
:102DD80000F0C480082DA2D15342DBB2D2B258BF52
:102DE8005A42FF2A4FF00003C4F8EC3897D1D4F8C0
:102DF800F428002A00F0B8820A2A00F05781062A2F
:102E080000F0C0810B2A00F0AC8102F5DF7254F8A3
:102E18002200002883D0036804F224411B689847E5
:102E2800D4F820147BE7FDF703FA41F28833801BBE
:102E38009842F5D96FF0010084F8005909B0BDE84F
:102E4800F08FFE287AD094F800390022C4F8EC28D4
:102E5800002B7FF464AF2168C34A0D68C34905910C
:102E68009542CDE9063340F01C81C149C4F82416C7
:102E780040F6F722C4F82826C4F82C36A4F83036D1
:102E880084F8323604F2296204F232600A2101E041
:102E980012F8011F82420B44FAD1D4F80C04C0F591
:102EA8000075102D6FEA03032F4600F5027028BF46
:102EB800102704F1040804F2246984F833363A46EA
:102EC8004044494601F0DCF8D4F80C341033C3F31D
:102ED80008030F2DC4F80C3457D9606890F869308E
:102EE800202B5FD0FDF7A4F9D4F82014C4F81404FB
:102EF80015E700220323C4F8F008C4F8FC08C4F856
:102F0800F828C4F8EC380AE7D4F8F03803EB0020C6
:102F18000423C4F8F008C4F8EC3800E794F8000972
:102F280000283FF42EAFD4F8043940F6C412F31A3F
:102F380093425BD8002009B0BDE8F08F0223C4F8A3
:102F4800EC38ECE65342DBB2D2B258BF5A42FF2A01
:102F58000CBF05230023C4F8EC38E0E6D4F8F438B5
:102F6800D4F8F02803EB00230720C4F8F438C4F899
:102F7800EC08002A3FF419AFD1E60623C4F8F40898
:102F8800C4F8FC08C4F8EC38C9E609EB0701C7F136
:102F9800100204F5037001F073F8606890F8693066
:102FA800202B9FD1734D2B78002B9BD1D4F80C2468
:102FB800D4F8103401219A42297014D09FB293BFDB
:102FC800C7F50077D21B97B2BFB203F5027308EBBF
:102FD80003013A46FEF70EF9D4F810343B44C3F324
:102FE8000803C4F8103400232B707BE723685E4A7B
:102FF8001D685E4B059395424FF00003CDE90633FB
:1030080040F0AA805A49C4F8241640F6F722C4F8BA
:103018002826C4F82C36A4F8303684F8323604F260
:10302800296204F232600A2101E012F8011F82428B
:103038000B44FAD1D4F80C04C0F50075102D6FEAD2
:1030480003032F4600F5027028BF102704F1040877
:1030580004F2246984F833363A464044494601F07C
:103068000FF8D4F80C341033C3F308030F2DC4F849
:103078000C3407D809EB0701C7F1100204F50370F7
:1030880000F0FEFF606890F86930202B41D0FDF712
:10309800CFF8C4F814040020C4F8046909B0BDE8E6
:1030A800F08F05AA0A212046A8471BE7FDF7C0F8BC
:1030B800DFF8CC80D4F82814D4F82434D4F8145485
:1030C8008844451B03F1FF39FDF7B2F8AAFB052335
:1030D800AAFB00179B094FF47A7202FB1351BF0930
:1030E8000BFB018102FB17024B440BFB1212DB1B8B
:1030F80004F21C41C4F81C24C4F8183404F5836095
:10310800FEF752FCFDF794F8D4F82014C4F8080927
:1031180005E6184F3B78002BB9D1D4F80C14D4F835
:103128001024012391423B7013D093B28CBFCB1A69
:10313800C3F500739DB202F5027208EB02012A463C
:10314800FEF758F8D4F810342B44C3F30803C4F836
:10315800103400233B709AE705AA0A212046A847A5
:1031680095E784F80039DAE56D210008F84200088F
:10317800FFFE08002C0B0020D34D621040420F00C8
:1031880000CA9A3BD4F82474D4F818399F4204F240
:10319800244806D9B900D4F8200900F07DFFC4F806
:1031A8002009C4F81879002F00F0CF804246042582
:1031B8000020937992F805C01179D7791B0443EA66
:1031C8000C230B43D4F8201943EA0763C4F81C39CD
:1031D80041F82030D4F818390130291D83422F4690
:1031E80002F104020D46E4D807F1090207F10803C9
:1031F800894607F10B01781D07F1060C07F1070E48
:1032080000921D4607F10A0201910C3718F80CC00C
:1032180018F8000018F8099018F80EE0D4F82419E6
:103228004FEA0C4C4CEA002C4CEA090949EA0E69B1
:1032380089450BD94FEA8901D4F82C09CDE9022335
:1032480000F02AFFDDE90223C4F82C09C4F8249908
:10325800B9F1000F25D008EB0502002104F6141C73
:10326800937892F801E01778D0781B0443EA0E238C
:103278003B4343EA0063D4F82C09CCF8143040F8F7
:103288002130D4F8240901312B1D88422F4602F140
:1032980004021D46E4D87A1DF91D00920191BA1D59
:1032A800083718F80250009A18F8031018F80200A6
:1032B800019B2D0418F80320D4F8303945EA00257D
:1032C8000D4345EA02659D4206D9A900D4F838099C
:1032D80000F0E2FEC4F83809C4F830597DB3002183
:1032E800084600231D4608EB070C1CF8012B9A40E2
:1032F8000833202B45EA0205F7D107F1040C05EB4A
:103308000C0EF44508D2FB1C4344624601325D783A
:1033180003F8015B7245F9D308EB0E020CF1FF3399
:1033280002F8010CD4F838294344C4F8343942F877
:103338002130D4F8303901318B427746D1D8012376
:1033480084F81039D4F82014E9E40B2301930923F5
:1033580000930C270A2208234FF0070E4FF0060CA3
:1033680005204FF0040951E72046FFF799F8204659
:10337800FFF730F9C4F80469C4F808694FF0FF3062
:10338800FFE400BF2DE9F04FD44CD548D54E89B0A5
:103398000821FDF7A7F9D4F84859D34A2B68D4F87F
:1033A80044891B68C4F85429B34240F04F82B8F1ED
:1033B800630F03DD95F80039002B73D0CA48FCF77A
:1033C800FFFE030E010A020C074685F82B0685F856
:1033D8002C1685F82D2685F82E360246D4F8541971
:1033E80005F22F6000F04CFE07F1040C5FFA8CF137
:1033F800CCF307228B18DB4385F826164FF6FF60BF
:103408005FFA88F1BCF1FF3F48F3072885F82836B2
:1034180085F82726A5F8240685F8291685F82A862A
:10342800C0F21A8205F22E60384405F229620023A0
:1034380001E012F8011F90420B44FAD1DB43DBB2E2
:1034480005EB0C020CF10807B7F5007F82F82B3664
:1034580000F38382D5F80C04C0F50076BE4228BF7D
:103468003E4600F5027005F1040805F2246932466B
:103478004044494600F004FED5F80C343B44C3F3FD
:103488000803B742C5F80C3406D0BA1B09EB06018D
:1034980005F5037000F0F4FD686890F86930202B9A
:1034A80000F0B081FCF7C4FED4F8083942F6F822DF
:1034B800C31A934284BF002384F80039D4F8EC3847
:1034C800064633B1D4F80C39984284BF0023C4F8B7
:1034D800EC38864F07F2045AA7F10C0BD4F82034C5
:1034E8004BBB6268D4F80832526E12685268524276
:1034F800C2F30802934200F00181E118D4F8FC28D5
:10350800097AD4F8EC580133C3F308030A44072DA9
:10351800C4F80832C4F8FC281BD06DBBFF2963D15E
:1035280006F11403C4F80C39D4F820340122C4F885
:10353800EC28002BD5D0FCF77BFED4F82034801B78
:103548009842CED94FF47A70FCF778FE09B0BDE8FE
:10355800F08FD4F8F828D4F8F038A018013B0132DD
:1035680080F82414C4F8F828C4F8F038002BB5D132
:103578000823C4F8EC38B1E7012D46D0022D00F03D
:103588009780032D00F09F80042D00F01881052DF1
:1035980000F02181062D00F02681082D9ED153428E
:1035A800DBB2D2B258BF5A42FF2A4FF00003C4F828
:1035B800EC3893D1D4F8F428002A00F061830A2A61
:1035C80000F09781062A00F051820B2A00F034821D
:1035D80002F5DF7254F8220000283FF47FAF036839
:1035E80039461B68984779E7FCF722FE41F2883391
:1035F800801B98427FF672AF4FF47A7084F80059B6
:10360800FCF71CFE09B0BDE8F08FFE2900F0D3805E
:1036180094F800390022C4F8EC28002B7FF45EAF40
:10362800334A344DC4F82C3640F6F721C4F828162E
:10363800A4F8303684F8323602F10900C4F824566A
:103648000A2101E012F8011F82420B44FAD1D4F892
:103658000C04DFF8A480C0F50075102DA94600F50C
:10366800037028BF4FF01009DB4320444A46414607
:1036780084F8333600F004FDD4F80C341033C3F367
:1036880008030F2DC4F80C3407D8C9F1100208EB51
:103698000901A8F5836000F0F3FC606890F86930D0
:1036A800202B00F0DB80FCF7C3FDC4F8140415E7F9
:1036B80000220323C4F8F018C4F8FC18C4F8F8284A
:1036C800C4F8EC380AE7D4F8F03803EB01210423F6
:1036D800C4F8F018C4F8EC3800E700BFCC010020AB
:1036E800000400486D21000800000020F0050020BB
:1036F800F5070020FFFE0800F007002094F80039C5
:10370800002B3FF41FAFD4F8043940F6C412F31A63
:1037180093427FF617AFCA4BCA4AC4F8243640F61C
:10372800F7210023C4F8281602F10900C4F82C3642
:10373800A4F8303684F832360A2101E012F8011F65
:1037480082420B44FAD1D4F80C24BF4FC2F500755D
:10375800102D02F50372A84628BF4FF01008DB436E
:10376800A0183946424684F8333600F089FCD4F86C
:103778000C341033C3F308030F2DC4F80C3407D8E6
:10378800C8F1100207EB0801A7F5836000F078FC88
:10379800606890F86930202B00F08880FCF748FDBD
:1037A800C4F814044FF47A70C4F80469FCF746FDB1
:1037B80009B0BDE8F08F0223C4F8EC388EE6534216
:1037C800DBB2D2B258BF5A42FF2A0CBF05230023EE
:1037D800C4F8EC3882E60623C4F8F418C4F8FC18D8
:1037E800C4F8EC387AE6D4F8F438D4F8F02803EBC7
:1037F80001230721C4F8F438C4F8EC18002A3FF470
:10380800B7AE6BE6914F3B78002B7FF44BAED5F803
:103818000C14D5F81024012391423B7013D093B2B5
:103828008CBFCB1AC3F500739EB202F5027208EB87
:1038380002013246FDF7DEFCD5F810343344C3F3F9
:103848000803C5F8103400233B702BE64146284690
:1038580004F51562984725E6FF23F1E57B4D2B78A3
:10386800002B7FF420AFD4F80C24D4F810340121B5
:103878009A42297017D01FFA83F893BFC8F50078C9
:10388800A2EB08021FFA82F81FFA88F803F50373FF
:10389800E1184246FDF7AEFCD4F810344344C3F3B4
:1038A8000803C4F8103400232B70FCE6674F3B78FC
:1038B800002B7FF473AFD4F80C14D4F81024012330
:1038C80091423B7012D093B28CBFCB1AC3F50073F0
:1038D8009DB202F50372A1182A46FDF78BFCD4F8B5
:1038E80010342B44C3F30803C4F8103400233B708E
:1038F80054E7FCF79DFCDFF86C81D4F82414D4F865
:103908002834D4F8145401F1FF39451B9844FCF7C6
:103918008FFC4F4BDFF850C1A3FB051292094FF4FF
:103928007A7303FB125502EB0901494AA2FB00E234
:1039380092090CFB058803FB12030CFB13838A1AFC
:1039480058464449C4F81C34C4F81824FEF72CF827
:10395800FCF76EFCC4F80809C0E53F4A3F4B0592E6
:1039680003218DF8181007932A681768B74240F0AA
:1039780072810022382085F82B1685F82D2685F8C7
:103988002E2685F82F2603F1300185F82C0605F53B
:10399800C6621F685E689868D3F80CC0C2F80CC08D
:1039A80010338B4217605660906002F11002F0D11C
:1039B80019682B4E5B68116040F2C2700021536099
:1039C8000B46A5F8280685F82A16C5F8246605F2D8
:1039D800296205F26760072101E012F8011F904291
:1039E8000B44FAD1D5F80C04C0F50077452F6FEADF
:1039F80003033E4600F5027028BF452605F104087A
:103A080005F2246985F8683632464044494600F094
:103A180037FBD5F80C344533C3F30803442FC5F8F6
:103A28000C343FF639AD09EB0601C6F1450205F540
:103A3800037000F025FB2FE584F800394EE500BF40
:103A4800FFFE0800F5070020F00700202C0B0020DF
:103A5800D34D6210E8050020284300088044000880
:103A6800FFFE3D0000CA9A3B40420F00D4F8248470
:103A7800D4F81839984507D94FEA8801D4F82009AD
:103A880000F00AFBC4F82009C4F81889B8F1000F3F
:103A980000F0E680804A0425002092F82A3492F843
:103AA80029E492F8281492F82BC41B0443EA0E2345
:103AB8000B43D4F8201943EA0C63C4F81C3941F8C5
:103AC8002030D4F81839013005F1040C8342A84697
:103AD80002F104026546E0D808F1090208F108037A
:103AE80008F10B0108F1050008F1060908F1070EB5
:103AF80001921D4608F10A02009108F10C0809EB31
:103B08000401204491F8241490F82494D4F824094A
:103B1800A444A64409049CF824C49EF824E441EA79
:103B2800092949EA0C0C4CEA0E6981450BD94FEA80
:103B38008901D4F82C09CDE9023200F0ADFADDE9AB
:103B48000232C4F82C09C4F82499B9F1000F2AD01C
:103B58006119002091F8263491F825E491F824C4DD
:103B680091F827241B0443EA0E2343EA0C0343EA93
:103B78000263D4F82C29CAF8003042F82030D4F86F
:103B8800242901302B1D8242A84601F104011D465B
:103B9800E0D808F1050208F107010192009108F147
:103BA800060208F1080801992144224491F82404E6
:103BB800009992F82454D4F830292344214493F8E6
:103BC80024C491F824342D0445EA002545EA0C055F
:103BD80045EA0365954206D9A900D4F8380900F0EA
:103BE8005BFAC4F83809C4F8305985B30020054693
:103BF80008F2244C0023A4441A461CF8011B9940DF
:103C08000833202B42EA0102F7D108F1040E72446E
:103C180072450AD908F2274323447146013193F8C3
:103C280001C003F801CB8A42F8D8A3180EF1FF317E
:103C380083F82354D4F838393944C4F8341943F88C
:103C48002010D4F83039013083429046D0D801236F
:103C580084F8103942E4284605AA0721B84721E428
:103C68000B230093092301934FF00C080A22082321
:103C78004FF0070E4FF0060905204FF0040C3EE701
:103C88000548FEF70DFC0448FEF7A4FCC4F80469D7
:103C9800C4F8086956E400BFCC0100202748284A28
:103CA8002849294B30B4026000224160C0F8143919
:103CB800C0F80822C0F80C24C0F8102480F80029A5
:103CC800C0F83029C0F8382900F5026300F68401ED
:103CD80043F8042F8B42FBD11C4B002103F16402F3
:103CE80043F8041F9342FBD1194B002103F50072DE
:103CF80003F8011F9342FBD1164B002203F5007114
:103D080003F8012F8B42FBD1134D144C1449154B6A
:103D1800C0F81829C0F82029C0F82429C0F82C298F
:103D2800C0F82024C0F85059C0F85449C0F84C29AC
:103D3800C0F83C19C0F8403930BC7047CC010020AD
:103D480070430008D400002040430008500A0020B7
:103D5800EF050020EF07002058430008B84400088A
:103D6800BC4400081C0B00201D4B00B59A6942F0AA
:103D780001029A619B6983B003F001030193032058
:103D8800019BFCF76DFA002211466FF00B00FCF75F
:103D980079FA002211466FF00A00FCF773FA002244
:103DA80011466FF00900FCF76DFA002211466FF01A
:103DB8000400FCF767FA002211466FF00300FCF7D5
:103DC80061FA002211466FF00100FCF75BFA00224D
:103DD80011464FF0FF3003B05DF804EBFCF752BA20
:103DE800001002400368B3F1804F00D0704703F51C
:103DF800043382B0DA6942F00102DA61DB6903F068
:103E080001030193019B02B0704700BF344B026865
:103E18009A4200D0704703F5E63370B5DA69314D40
:103E280042F40032DA61DB6986B003F400330093B0
:103E3800022148F20403064601200322019302915D
:103E4800072301A903904FF09040CDE90423009C7B
:103E5800FCF770FB4FF48020FCF748FC4FF48020FF
:103E6800FCF744FC204B2B60802320214FF40052A8
:103E7800EB6028460023C5E90612C5E90133C5E908
:103E88000433FCF76DFA00BB184C19482060102366
:103E980080214FF4005263607566002320466E62ED
:103EA800E160E261A360C4E90433A361FCF758FA56
:103EB80080B900221146346626206662FCF7E2F9D2
:103EC8002620FCF715FA06B070BD9D210948FDF7BC
:103ED80049FED9E7AD210748FDF744FEE9E700BFF1
:103EE80000440040880100206C000240440100208A
:103EF80080000240C444000808B5FCF791F9BDE809
:103F08000840FCF729BA00BF0148FCF7C5BA00BF52
:103F1800880100200148FCF7BFBA00BF4401002017
:103F28000148FDF78FBC00BFD40000200C4A08B53B
:103F3800136833B118446946884208D81060184697
:103F480008BD084B1360184469468842F6D900F04A
:103F58006DF80C2303604FF0FF33184608BD00BF0F
:103F6800240B0020400B00201749184B184A194809
:103F780010B4D1F8884044F47004C1F888401C6833
:103F880044F001041C605C6822405A601A6822F000
:103F9800847222F480321A601A6822F480221A602D
:103FA8005A6822F4FE025A60DA6A22F00F02DA62D4
:103FB8001A6B002410404FF0006218639C608A60FE
:103FC8005DF8044B704700BF00ED00E000100240B0
:103FD8000CC07FF8CCFC00FFDFF834D0002103E0F0
:103FE8000C4B5B58435004310B480C4B42189A4217
:103FF800F6D30B4A02E0002342F8043B094B9A42ED
:10400800F9D3FFF7B1FF00F017F8FDF717FDFEE74A
:1040180000300020EC440008000000207800002058
:1040280078000020400B0020FEE70000014B1868D4
:10403800704700BF1400002070B50D4E0D4CA41B36
:10404800A4100025A54209D10B4E0C4C00F014F920
:10405800A41BA4100025A54205D170BD56F8253033
:1040680098470135EEE756F8253098470135F2E7CD
:10407800E0440008E0440008E0440008E844000880
:1040880010B5431E0A44914200D110BD11F8014BEE
:1040980003F8014FF7E70000024B0A46014618688B
:1040A80000F002B814000020F8B5074614460E4682
:1040B80021B91146BDE8F84000F06AB822B900F00D
:1040C80019F825462846F8BD00F0BCF8A0420FD2E2
:1040D8002146384600F05CF805460028F2D0314603
:1040E8002246FFF7CDFF3146384600F003F8E9E7EE
:1040F8003546E7E738B50546002945D051F8043C70
:104108000C1F002BB8BFE41800F0B4F81F4A13685E
:10411800104633B9636014602846BDE8384000F0A3
:10412800AAB8A3420CD921686218934204BF1A683E
:104138005B68636004BF521822600460ECE71346B2
:104148005A680AB1A242FAD919685818A0420BD184
:1041580020680144581882421960DDD110685268FD
:104168005A6001441960D7E702D90C232B60D3E7C2
:10417800206821188A4204BF11685268626004BF2F
:10418800091821605C60C7E738BD00BF300B00200C
:1041980070B5CD1C25F0030508350C2D38BF0C254E
:1041A800002D064601DBA94203D90C233360002009
:1041B80070BD00F05FF8214A1468214691B9204C7F
:1041C80023681BB9304600F045F820602946304680
:1041D80000F040F8431C24D10C233360304600F033
:1041E8004AF8E4E70B685B1B18D40B2B0FD90B605C
:1041F800CD50CC18304600F03EF804F10B00231DDA
:1042080020F00700C31AD3D05A42E250D0E78C42BC
:104218004B6816BF636013600C46EBE70C464968B1
:10422800CCE7C41C24F00304A04205D0211A304670
:1042380000F010F80130CFD02560DBE7300B00200C
:10424800340B002051F8043C181F002BBCBF0B583E
:10425800C018704738B5064C002305460846236049
:10426800FFF764FE431C02D1236803B12B6038BDFD
:104278003C0B002070477047F8B500BFF8BC08BC7D
:104288009E467047F8B500BFF8BC08BC9E4670470C
:1042980002030405060708090A0B0C0D0E0F10107F
:1042A8000102030405060708090A0B0C0D0E0F107E
:1042B80000040802726F7373657269616C5F6D73D5
:1042C80067732F52657175657374506172616D0003
:1042D80000000000000000000102030406070809AE
:1042E80000000000010203040000000000000000BC
:1042F800711B0008991B0008D51B0008DD1B00086E
:104308000000000000000000291F0008E51B00084D
:10431800C11C0008C91C00080000000000000000C3
:10432800F91E0008D11C0008151D00081D1D0008F5
:104338000000000000000000B91D0008C11F0008AF
:10434800251D00082D1D00080000000000000000C9
:104358008D1D0008351D0008751D00087D1D00080D
:1043680000000000000000006D210008E52C000896
:10437800851D00083966306539386264613635391B
:10438800383139383664646635336166613761348B
:1043980030653439000000003131616264373331EF
:1043A8006332353933333236316364363138336208
:1043B800643132643632393500000000726F73732D
:1043C800657269616C5F6D7367732F4C6F6700006E
:1043D800306164353166383866633434383932666A
:1043E8003863313036383430373736343630303554
:1043F80000000000726F7373657269616C5F6D73A2
:1044080067732F546F706963496E666F0000000010
:104418006364373136366337346335353263333165
:104428003166626363326665356137626332383993
:10443800000000007374645F6D7367732F54696DB7
:1044480065000000393932636538613136383763C1
:10445800656338633862643838336563373363615A
:1044680034316431000000007374645F6D736773E6
:104478002F537472696E67004D65737361676520A9
:1044880066726F6D206465766963652064726F700B
:104498007065643A206D657373616765206C61723D
:1044A800676572207468616E206275666665722E33
:1044B8000000000063686174746572002E2E2F532B
:1044C80072632F73746D3332663378785F68616C0A
:0844D8005F6D73702E6300009C
:0844E000AD010008A53C000835
:0444E800890100083E
:1044EC0048656C6C6F20776F726C64210000000063
:1044FC0000127A00180000200000000000000000EC
:10450C00000000000000000000000000000000009F
:10451C00000000000000000000000000000000008F
:10452C00000000000000000000000000000000007F
:10453C00000000000000000000000000000000006F
:10454C00000000000000000000000000000000005F
:08455C00000000000000000057
:0400000508003FE1CF
:00000001FF
